:1000000019C033C032C031C030C02FC02EC02DC087
:100010002CC02BC02AC029C028C027C026C025C09C
:1000200024C023C04FC021C020C01FC01EC01DC09F
:100030007FC11BC011241FBECFEFD2E0DEBFCDBFFA
:1000400011E0A0E0B1E0ECEDF4E002C005900D920B
:10005000A430B107D9F712E0A4E0B1E001C01D92CD
:10006000A131B107E1F77AD037C2CACF8EE084B9A7
:1000700085B913B888EE8AB980EE8BB919B881E0DA
:1000800087B980E388B916B808951092C50083E354
:100090008093C40088E98093C10086E08093C20009
:1000A0000895582F282F392FF90107C08091C000DB
:1000B00085FFFCCF81918093C6008E2F851B86170C
:1000C000A8F308951F920F920FB60F9211242F9349
:1000D0008F939F93EF93FF932091C6002093040189
:1000E0002E3F39F480910701882319F481E0809331
:1000F000050180910501882339F180914801E82F9D
:10010000F0E0E85FFE4F20838F5F8093480190917D
:10011000480180910601981751F481E0809307010E
:100120001092060180910601809305010DC0809117
:100130004801823049F4233118F42093060104C0A9
:100140001092480110920501FF91EF919F918F91BC
:100150002F910F900FBE0F901F901895DF93CF93A4
:1001600000D0CDB7DEB71A82198288E08983F8946F
:100170007DDF1092C50083E38093C40088E98093FB
:10018000C10086E08093C20035D0789480E091E091
:1001900062E087DF80E49CE90197F1F7CE010196E8
:1001A00061E070E042D080910701882331F0109225
:1001B0004801809148018093070180918F01882335
:1001C00091F389E491E0609189016BDFECCF81E0EC
:1001D00080938F0140918A0129E431E0E1EDF1E063
:1001E000C901BF0150E06FD180918A0180938901DC
:1001F00016D008955598ECEBF0E0108282E18093E0
:10020000B8001092B90087E38093BA0082E080932F
:10021000900185E4808380E58A95F1F70895109236
:100220008A0185EC8093BC0008950F931F93CF93B0
:10023000DF938C01EB0110928E0110928D016134DD
:10024000710508F44EC060E070E040E433E025EE54
:10025000E1E9F1E0D801A60FB71F80E40D9001920B
:100260008150E1F7605C7F4F40938B0110928C01CD
:100270008091900180FDFCCF309390011092BA00E4
:100280002093BC008091900180FDFCCFCB01805C6D
:100290009F4FC817D907E0F66C177D07E0F59E0160
:1002A000261B20938B0140918B0121E931E0F8015D
:1002B000E60FF71FC901BF0150E005D110928C0174
:1002C0008091900180FDFCCF83E08093900110929B
:1002D000BA0085EE8093BC008091900180FDFCCF38
:1002E0001AC021E931E0C901B801AE01ECD0C093D8
:1002F0008B0110928C018091900180FDFCCF83E0F6
:10030000809390011092BA0085EE8093BC0080919A
:10031000900180FDFCCF87E38093BA0085EC809349
:10032000BC0080919001DF91CF911F910F910895B2
:100330001F920F920FB60F9211242F933F934F935A
:100340005F936F937F938F939F93AF93BF93EF933D
:10035000FF938091B90090E0887F9070803691057E
:1003600009F47BC081369105F4F48032910509F4DB
:100370003FC0813291055CF480319105A9F188314B
:10038000910509F453C0089709F089C02DC0803346
:10039000910509F447C08833910509F47EC0889718
:1003A00009F07DC034C08038910509F45AC0813805
:1003B00091052CF48037910509F071C04EC0803949
:1003C000910509F46CC0813991052CF488389105A8
:1003D00009F065C058C08839910509F460C0803AB9
:1003E000910509F05CC051C086E38093BB0057C003
:1003F00080918D0190918E01019690938E01809352
:100400008D01019706970CF448C084E022C08091CA
:100410008B01882359F485ED8093BC0082E08093A2
:10042000900140C080918B01882391F090918C01C4
:10043000E92FF0E0EF56FE4F80818093BB009F5F75
:1004400090938C0180918B01815080938B0127C008
:1004500082E08093900185ED23C083E0809390013A
:100460001EC080918A019091BB00E82FF0E0EF520E
:10047000FE4F90838F5F80938A0180918A01803440
:1004800071F485E80DC085EF04C082E0809390018F
:1004900085E88093BC009BDE05C085EE01C085EC3D
:1004A0008093BC00FF91EF91BF91AF919F918F918D
:1004B0007F916F915F914F913F912F910F900FBE60
:1004C0000F901F901895FB01DC0102C001900D9266
:0C04D00041505040D8F70895F894FFCF39
:0404DC004142000099
:040000050080010571
:00000001FF
