:1000000019C020C01FC01EC01DC01CC01BC01AC00C
:1000100019C018C017C016C015C014C013C012C034
:1000200011C010C00FC00EC00DC00CC00BC00AC064
:1000300009C008C011241FBECFEFD2E0DEBFCDBF84
:100040002AD03FC0DDCF14B815B813B883E087B904
:1000500018B816B81AB81BB819B808951092C50088
:100060008CE08093C40088E98093C10086E080938F
:10007000C2000895582F282F392FF90107C0809109
:10008000C00085FFFCCF81918093C6008E2F851B19
:100090008617A8F30895D7DF80E197E228EC30E0D7
:1000A000F9013197F1F70197D9F7419A80EF95E57A
:1000B00028EC30E0F9013197F1F70197D9F7419831
:0600C000FFCFF894FFCF12
:00000001FF
