:1000000019C078C086C026C025C024C023C022C025
:1000100021C020C01FC01EC01DC01CC01BC01AC0F4
:1000200019C018C08DC016C015C014C013C012C0AE
:1000300011C010C011241FBECFEFD2E0DEBFCDBF74
:1000400011E0A0E0B1E001C01D92A734B107E1F7D3
:10005000B5D003C1D5CF86E084B915B813B886E30F
:1000600087B918B816B880E18AB98BB919B808955C
:100070008FE08093690083E08DBB08951092C500E6
:1000800083E38093C40088E98093C10086E0809375
:10009000C2000895582F282F392FF90107C08091E9
:1000A000C00085FFFCCF81918093C6008E2F851BF9
:1000B0008617A8F3089540E050E090E068EC70E007
:1000C00014C05C9828EB3BE0FB013197F1F721501D
:1000D0003040D1F75C9A28EB3BE0FB013197F1F718
:1000E00021503040D1F74F5F5F4F481759074CF30D
:1000F0005C9A08951F920F920FB60F9211248F935E
:1001000081E0809301018F910F900FBE0F901F909F
:1001100018951F920F920FB60F9211248F93809112
:1001200000018F5F809300018150893C18F088ECBA
:10013000809300018F910F900FBE0F901F90189524
:100140001F920F920FB60F9211248F939F93EF93EC
:10015000FF938BB190E189278BB99091C600909362
:1001600002019E3F39F480910501882319F481E052
:1001700080930301809103018823B9F080914601A7
:10018000E82FF0E0EA5FFE4F90838F5F8093460197
:1001900080914601843049F481E0809305011092FA
:1001A00004018091040180930301FF91EF919F91DD
:1001B0008F910F900FBE0F901F901895CF93DF93E4
:1001C000F89449DF1092C50083E38093C40088E966
:1001D0008093C10086E08093C2008FE08093690025
:1001E00083E08DBB789482E066DF80ED97E028ECB9
:1001F00030E0F9013197F1F70197D9F7419A80E2A0
:100200009EE428EC30E0F9013197F1F70197D9F736
:100210004198C8ECD0E080910501882361F01092EC
:10022000460180914601809305014A9B04C01092CB
:1002300001014498459A80910001882361F380E18F
:1002400097E2FE013197F1F70197D9F74498459865
:0E02500083E031DF10920001DECFF894FFCF83
:040000050080010373
:00000001FF
