:1000000019C02BC02AC029C028C027C026C025C0BF
:1000100024C023C022C021C020C01FC01EC01DC0DC
:100020001CC01BC01AC019C018C017C016C015C00C
:1000300014C013C011241FBECFEFD2E0DEBFCDBF6E
:1000400012E0A0E0B1E0E4EBF1E002C005900D9217
:10005000A038B107D9F749D0ABC0D2CF86E084B978
:1000600015B813B887B918B816B880E18AB91BB8A3
:1000700019B808951092C50083E08093C40088E900
:100080008093C10086E08093C2000895582F282FE6
:10009000392FF90107C08091C00085FFFCCF819105
:1000A0008093C6008E2F851B8617A8F3089540E025
:1000B00050E090E068EC70E014C0419A20EA3FE024
:1000C000FB013197F1F721503040D1F7419820EAF8
:1000D0003FE0FB013197F1F721503040D1F74F5FFE
:1000E0005F4F481759074CF30895F894B7DF109203
:1000F000C50083E08093C40088E98093C10086E056
:100100008093C20080ED97E00197F1F780E69AEEC8
:1001100028EC30E0F9013197F1F70197D9F7419ACE
:1001200080E29EE428EC30E0F9013197F1F7019785
:10013000D9F74198FFCF80E091E0FC0101900020C9
:10014000E9F73197E81BF90B6E2FA0DF80EA9FE0FB
:1001500028EC30E0F9013197F1F70197D9F7A0E4E5
:10016000B1E0FD0101900020E9F7E154F140CD013B
:100170006E2F8CDF80EA9FE028EC30E0F9013197A8
:10018000F1F70197D9F7A0E8B1E0FD010190002057
:10019000E9F7E158F140CD016E2F78DF80EA9FE06A
:1001A00028EC30E0F9013197F1F70197D9F708957C
:0401B000F894FFCFF1
:1001B40041542B445343414444523D302C22544334
:1001C40050222C223132302E37382E3134342E3214
:1001D4003535222C383838380D0000000000000076
:1001E400000000000000000000000000000000000B
:1001F400415426570D0000000000000000000000DC
:1002040000000000000000000000000000000000EA
:1002140000000000000000000000000000000000DA
:1002240000000000000000000000000000000000CA
:1002340041542B4346554E3D312C310D00000000F6
:1002440000000000000000000000000000000000AA
:10025400000000000000000000000000000000009A
:10026400000000000000000000000000000000008A
:1002740041542B47534E0D000000000000000000C5
:10028400000000000000000000000000000000006A
:10029400000000000000000000000000000000005A
:1002A400000000000000000000000000000000004A
:1002B40041544F0D00000000000000000000000049
:1002C400000000000000000000000000000000002A
:1002D400000000000000000000000000000000001A
:1002E400000000000000000000000000000000000A
:1002F4002B2B2B0000000000000000000000000079
:1003040000000000000000000000000000000000E9
:1003140000000000000000000000000000000000D9
:1003240000000000000000000000000000000000C9
:00000001FF
